:060000000A128A11122809
:10000800FE00030EFA000408FB000A08FC00831235
:1000180003137F08FD000A128A11B5290A128A11F2
:10002800152883135330840066300A128A1170250C
:100038000A128A11C830FD000430FE00C930FF00E2
:10004800A03084000A128A111B2583010A128A1122
:10005800562BF800F9010830790203188328831217
:100068000313851204307902031857280A128A11DB
:1000780056250A128A110A128A1156250A128A115D
:100088007808840083130008F7007708F0007908DF
:10009800013E0A128A1105250A128A117808013EC2
:1000A800F7007708F80004307902031C78280A1250
:1000B8008A1156250A128A110A128A1156250A121D
:1000C8008A117208840083130008F7007708F0008B
:1000D8007908013E0A128A1105250A128A11720846
:1000E800013EF7007708F2008312031385160130EA
:1000F800F7007708F90708307902031C3328F9015B
:10010800083079020318D8288312031385120430A3
:1001180079020318AC280A128A1156250A128A1184
:100128007308840083130008F7007708F000790843
:10013800013E0A128A1105250A128A110A128A1129
:1001480056250A128A117308013EF7007708F30052
:1001580004307902031CCD280A128A1156250A1286
:100168008A117408840083130008F7007708F000E8
:100178007908013E0A128A1105250A128A110A1203
:100188008A1156250A128A117408013EF700770869
:10019800F4008312031385160130F7007708F90776
:1001A80008307902031C8828F901083079020318FD
:1001B80008008312031385120430790203180129F9
:1001C8007508840083130008F7007708F0007908A1
:1001D800013E0A128A1105250A128A110A128A1189
:1001E80056250A128A110A128A1156250A128A11EC
:1001F8007508013EF7007708F50004307902031C02
:1002080022297608840083130008F7007708F00095
:100218007908013E0A128A1105250A128A110A1262
:100228008A1156250A128A110A128A1156250A12AB
:100238008A117608013EF7007708F6008312031347
:1002480085160130F7007708F907D9280A30F00039
:100258000030F100831203136008F301F3075F080D
:10026800F201F2070A128A11FC230A128A11710894
:1002780083120313E201E2077008E101E1070A3083
:10028800F0000030F1006008F301F3075F08F201A5
:10029800F2070A128A11FB220A128A1171088312C4
:1002A8000313E401E4077008E301E3070A30F000F0
:1002B8000030F1005E08F301F3075D08F201F20770
:1002C8000A128A11FC230A128A1171088312031375
:1002D800DA01DA077008D901D9070A30F0000030CE
:1002E800F1005E08F301F3075D08F201F2070A1254
:1002F8008A11FB220A128A11710883120313DC0186
:10030800DC077008DB01DB070A30F0000030F10081
:100318005408F301F3075308F201F2070A128A118D
:10032800FC230A128A11710883120313D601D60717
:100338007008D501D5070A30F0000030F1005408E4
:10034800F301F3075308F201F2070A128A11FB229C
:10035800710883120313D801D8077008D701D7078B
:1003680008000C1C202A0310071F0314031CC029B3
:10037800831203130717C329831203130713DF30EC
:100388008F00FF308E005F08013EDF006008031811
:10039800013E003EE0006008803AFF0080307F02A6
:1003A800031DD8293C305F02031CE629831203137E
:1003B800DF01E0015D08013EDD005E080318013E33
:1003C800003EDE00831203135E08803AFF0080308F
:1003D8007F02031DF1293C305D02031C012A8312B0
:1003E8000313DF01E001DD01DE015308013ED30004
:1003F80054080318013E003ED40083120313540826
:10040800803AFF0080307F02031D0C2A1830530207
:10041800031C162A83120313DF01E001DD01DE014C
:10042800D301D4010A128A112A210A128A110A1246
:100438008A112E220A128A11831203130C107D08C6
:10044800FF007C088A007B0884007A0E8300FE0E79
:100458007E0E09002B308400A03083120313A00005
:100468000408A1002830A200200884008313000893
:10047800A300A00A2108840023088000A10AA20B77
:10048800382A5508A00001300310A00DFF3E031DB7
:10049800482A0310200D2B3EA1002108F2005B081A
:1004A800A20001300310A20DFF3E031D562A0310BF
:1004B800220D2B3EA3002308F3005908A4000130A5
:1004C8000310A40DFF3E031D642A0310240D2B3EC8
:1004D800A5002508F4006308A60001300310A60D46
:1004E800FF3E031D722A0310260D2B3EA700270886
:1004F800F5006108A80001300310A80DFF3E031D98
:10050800802A0310280D2B3EA9002908F600570859
:10051800AA0001300310AA0DFF3E031D8E2A031006
:100528002A0D2B3E0A128A112D200800831203136C
:10053800851283160313C801C80A0C300A128A11DF
:10054800F1240A128A110A128A1147250A128A11FD
:100558000A128A1147250A128A1183120313851673
:10056800851283160313C8010A300A128A11F1246E
:100578000A128A110A128A1147250A128A110A12C6
:100588008A1147250A128A118312031385168512C8
:1005980083160313C80109300A128A11F1240A12BA
:1005A8008A110A128A1147250A128A110A128A1117
:1005B80047250A128A1183120313851685120730FC
:1005C80083160313CA004A08C8000B300A128A119E
:1005D800F1240A128A110A128A1147250A128A116D
:1005E8000A128A1147258312031385160800F6019B
:1005F800F11F052BF009F109F00A0319F10AF601B8
:10060800F60AF31F102BF209F309F20A0319F30A89
:100618000130F4007408F606F701F8017108700457
:100628000319472BF501F50AF11B262B013003109E
:10063800F00DF10DFF3E031D1B2B0130F400740873
:10064800F507182B01300310F70DF80DFF3E031DB9
:10065800272B71087302031D332B70087202031CC9
:100668003C2B7008F2027108031CF303F3027714A1
:1006780001300310F10CF00CFF3E031D3D2B01303F
:10068800F502031D262B760803194F2BF709F809E5
:10069800F70A0319F80A7808F101F1077708F00159
:1006A800F007080083120313DD01DE010A128A1124
:1006B80065250A128A110A128A1128250A128A1136
:1006C8000A128A1190240A128A110A128A11AF2377
:1006D8000A128A110A128A119A220A128A110A1215
:1006E8008A1138250A128A110A128A1178250A12E3
:1006F8008A110A128A1149240A128A1183120313D1
:100708008818992B5308013ED30054080318013E5A
:10071800003ED400DD01DE01DF01E0012830831650
:100728000313CC00CC0B962B00008312031308187C
:10073800822B5D08013EDD005E080318013E003E85
:10074800DE00DF01E001283083160313CC00CC0B58
:10075800AB2B0000822B831203138512831603131D
:10076800C801C80A0C300A128A11F1240A128A1127
:100778000A128A1147250A128A1183120313851651
:10078800851283160313C8010A300A128A11F1244C
:100798000A128A110A128A1147250A128A1183122B
:1007A80003138516851283160313C80109300A122C
:1007B8008A11F1240A128A110A128A1147250A128B
:1007C8008A118312031385168512073083160313C3
:1007D800CA004A08C8000B300A128A11F1240A120A
:1007E8008A110A128A1147258312031385160800F5
:1007F800F601F31F062CF209F309F20A0319F30AAA
:10080800F601F60AF11F0D2CF009F109F00A031997
:10081800F10A7108700403193A2CF501F50AF11B65
:10082800212C01300310F00DF10DFF3E031D162C95
:100838000130F4007408F507132C71087302031DC6
:10084800272C70087202031C2F2C7008F202710802
:10085800031CF303F30201300310F10CF00CFF3E0C
:10086800031D302C0130F502031D212C76080319D5
:10087800422CF209F309F20A0319F30A7308F10189
:10088800F1077208F001F007080083160313CB0183
:10089800CB0A09304B0203186F2C831203138512FD
:1008A8000A128A1147250A128A1183160313C801EE
:1008B8004B080A128A11F1240A128A1183120313AF
:1008C8008516013083160313CA004A08CB0709307E
:1008D8004B02031C512CCB01CB0A09304B020318E5
:1008E800080083120313851283160313C8014B08EB
:1008F8000A128A11F1240A128A110A128A1147254A
:100908000A128A1183120313851601308316031302
:10091800CA004A08CB07712C831203138512831669
:100928000313C801C80A0C300A128A11F1240A12EA
:100938008A11831203138516851283160313C801BF
:100948000A300A128A11F1240A128A118312031337
:100958008516851283160313C80109300A128A11F5
:10096800F1240A128A11831203138516851207309F
:1009780083160313CA004A08C8000B300A128A11EA
:10098800F1248312031385160800FC348434FC34E4
:10099800003410340834FC340034F43494349C3477
:1009A800003484349434FC3400343C342034F83437
:1009B80000349C349434F4340034FC349434F434E7
:1009C80000340434E4341C340034FC34A434FC34DF
:1009D8000034BC34A434FC34003483160313C90037
:1009E800490883120313930083160313141CF82C6D
:1009F800480883120313930083160313141808007E
:100A0800002DF1007108831203139300831603135A
:100A1800141C0A2D70088312031393008316031302
:100A280014180800122D7E088A007F0882001725F6
:100A38000A128A118000840A04087D06031900340A
:100A4800FF0A0319FE0A1B2DF030831203139405C5
:100A5800141294161413941383160313141794176B
:100A68008312031385160800831203130C10DF305A
:100A78008F00FF308E0010129012831603130C148F
:100A88000B178B17080083120313930183160313A4
:100A9800141C4A2D8312031393018316031314188D
:100AA8000800512D83120313930183160313141C9A
:100AB800592D831203139301831603131418080086
:100AC800602D8316031305148512871107168712E4
:100AD800071308148814080064008001840A0406B7
:100AE800031900340406712DDF30831203138F00BD
:080AF800FF308E00101408000D
:02400E0039FF78
:00000001FF
